:020000040000FA
:100000000A128A11FC2F00308A000408840A820731
:1000100000344D347534683465346E346434693476
:1000200073346C3469346734693400344D34653466
:100030006B346134743472346F346E3469346B34BD
:0200400000348A
:100E00005330F000F00B022F080001300A128A1153
:100E100074270A128A110330F4009730F300F30BA1
:100E20000F2FF40B0F2F142F0800F4007403031D71
:100E30001A2F1B2F252F7308FF3E0F39803E0A12F1
:100E40008A1174270A128A112E2F7308FF3E0F3958
:100E5000C03E0A128A1174270A128A1108008316EA
:100E60000313860187010A128A11BE270A128A110A
:100E70000E300A128A1150270A128A11F301F30A5E
:100E800002300A128A1115270A128A1101300A1239
:100E90008A1150270A128A114C2F0A128A1100282F
:100EA000F4000A128A1100270A128A11672F7408A7
:100EB00084000A128A1103200A128A110A128A1166
:100EC00099270A128A110130F3007308F407740895
:100ED00084000A128A1103200A128A11003A031DA3
:100EE000722F732F572F0800F200831203138610FE
:100EF000061006157208F039870006110A128A11C9
:100F000000270A128A1183120313061572080F397B
:100F1000F10003300310F10DFF3E031D8A2F031073
:100F2000710D870006110A128A1100270A128A1110
:100F30000800F200831203138610061406157208C7
:100F4000F039870006110A128A1100270A128A1145
:100F500083120313061572080F39F10003300310D2
:100F6000F10DFF3E031DAF2F0310710D8700061119
:100F70000A128A1100270A128A1108008312031329
:100F80000610061186101430F6007930F500F50BC6
:100F9000C72FF60BC72FCC2F831203130615023071
:100FA0000A128A1174270A128A110330F600973048
:100FB000F500F50BD92FF60BD92FDE2F28300A12AA
:100FC0008A1174270A128A1106300A128A117427AC
:100FD0000A128A110C300A128A1174270A128A1115
:100FE0000A128A1105270A128A1180300A128A1100
:100FF00074270A128A11080083010A128A112F2FFE
:02400E00F93F78
:00000001FF
